:020000040000FA
:10000000FC7F0020790B0000690B00006D0B0000E5
:1000100000000000000000000000000000000000E0
:10002000000000000000000000000000710B000054
:100030000000000000000000750B0000CD0C000067
:1000400010B5064C2378002B07D1054B002B02D0AE
:10005000044800E000BF0123237010BD5C000020B5
:1000600000000000D01E000008B5084B002B03D094
:100070000748084900E000BF07480368002B03D089
:10008000064B002B00D0984708BDC046000000007A
:10009000D01E00006000002058000020000000007A
:1000A000064B0322104002040549586808401043DB
:1000B0005860DA695107FCD47047C0460008004216
:1000C000FFFFFCFF38B5284A284B5A805A7852B2B5
:1000D000002AFBDB264B04211A6A264D0A431A62CA
:1000E0002B68012213432B602A680123214C1A42FA
:1000F000FAD1E2691A42F7D11423236041001E4865
:1001000001F008FD421EE068FF231A4098431043A7
:10011000E0602368022213432360EA69154B9107CC
:10012000FBD45A8B30218A4310210A435A83EB694E
:1001300001205A07FBD4114B02241A7802431A708B
:100140000F4B0F22197891431970197821431970B8
:100150000C490C782043087019780A401A701A78F4
:1001600020210A431A7038BD14400000000C0040E2
:100170000004004000080042006CDC0248440041DA
:100180003444004149440041F7B500230F1C01925B
:100190001D1C994254D001212A4E4000084333705F
:1001A000C1B2294B0322588B1C1C000910400128A6
:1001B00004D05B8B1B091A40022AF2D1606AC00A84
:1001C000C00208436062217E1F4B0122880708D4C9
:1001D000197E1142F7D05968C02292020A435A6030
:1001E00003E05B8B9B08134201D0002528E03270AE
:1001F000237E9907FCD5154A154B117801251970F6
:100200006268BD4212D0134B022013406360FFF7B7
:1002100047FF33785A1C3270227E9007FCD50B4979
:100220000B480A780135C254EDB2E9E78023DB02BE
:10023000134363600199002902D00320FFF730FFC8
:10024000281CFEBD7800002000080042280800425B
:1002500099000020FFFFFBFF024B00221870024BA9
:100260001A7070477A00002079000020F8B5274BFB
:100270001C786400E4B2264B03215D8B1A1C2D0907
:100280000D40012D04D05B8B1B0919400229F2D1CE
:10029000536ADB0ADB0223435362117E01231942B6
:1002A000FBD01B49498B8908194204D00320FFF772
:1002B000F7FE022427E017490D782B1C002B11D0E4
:1002C000154EEC1A365D154C2670114E177E012422
:1002D000768B274202D12642F7D00BE0B6082642A1
:1002E0000ED007E00B701C1C00280CD00320FFF779
:1002F000D7FE08E003200B700324FFF7D1FE02E0D5
:10030000013BDBB2DAE7201CF8BDC0467A000020D2
:1003100000080042790000207B00002028080042ED
:10032000034A1378591C1170024AD05401207047B7
:10033000790000207B000020154A164B1178002917
:1003400009D11549187809784118C9B21970802067
:1003500012494003C86111780131C9B2117019788E
:10036000F02902D81978092909D80B4908784042A0
:10037000C0B20870187809784118C9B2197012789B
:100380001B789A4203D18022044B5203DA617047F2
:100390007D000020010000200000002000440041FA
:1003A00010B5041C6B20FFF757FF201CFFF7B8FFA8
:1003B0000120FFF75BFF01210A1C6B20FFF7E4FE21
:1003C000014B187810BDC0469900002038B5051CB7
:1003D0006B200C1CFFF740FF281CFFF7A1FF201C1F
:1003E000FFF79EFF0120FFF741FF022038BD08B54F
:1003F0000520FFF7D5FFCE23011C19400520FFF78C
:10040000E5FF012008BD000010B5041C0020FFF727
:10041000C7FF78232D4A9843C1B2944242D018D8DE
:100420002B4B9C4238D009D82A4B9C4230D02A4BC7
:100430009C422FD0294B9C4245D13FE0284B9C4207
:100440002CD0284B9C422BD0274B9C423BD12023C5
:1004500033E0264A94422BD00AD8254B9C4223D025
:10046000244B9C4222D0244B9C422CD1402324E09C
:10047000224A94421ED004D8214B9C4223D16023AF
:100480001BE0204A944217D01F4A944215D01AE02C
:10049000082312E0102310E018230EE028230CE0BC
:1004A00030230AE0382308E0482306E0502304E024
:1004B000582302E0682300E0702319430020FFF76F
:1004C00085FF012000E0002010BDC046581100004B
:1004D00018100000780F0000C80F0000280F00005F
:1004E000B810000008110000681000009812000009
:1004F000F811000048120000A81100003813000095
:10050000E812000088130000D813000010B5041C86
:100510000020FFF745FF07239843E122C1B2920074
:10052000944220D008D8962C18D0FA235B009C4225
:1005300017D0642C22D11CE0114A944215D005D862
:100540009623DB009C4219D1042311E0FA22D20049
:1005500094420CD00B4A94420AD00FE0012421436C
:1005600007E0022304E0032302E0052300E0062362
:1005700019430020FFF72AFF012000E0002010BDF2
:10058000DC050000B80B000070B504AC267805ACA3
:100590002578441EA041C401002901D040210C430C
:1005A000002A01D020221443002B01D010231C4329
:1005B000002E01D008231C43002D01D004231C432E
:1005C0000220FFF7EDFE0125011C294021430220F6
:1005D000FFF7FCFE281C70BD10B5041C0420FFF7BB
:1005E000DFFE03231840084B9C4204D0074B9C427B
:1005F00008D1B02100E0982101430420FFF7E6FE76
:10060000012000E0002010BD10100000701000005C
:1006100008B50120FFF7C4FECF23011C19400120BB
:10062000FFF7D4FE012008BD07B5FFF7E0FEFFF796
:10063000EFFF0948FFF7E8FEFA20C000FFF766FF6A
:10064000002300930193181C191C1A1CFFF79CFF30
:100650000248FFF7C1FF07BD08110000101000009D
:1006600008B50348FFF72EFDFFF7DEFF08BDC046C3
:10067000A086010010B5C3699C07FCD4036802245E
:10068000A3430360C46901231C42FBD104682343D4
:1006900003600368DC07FCD4C46901231C42FBD15E
:1006A000C469DC401C42F7D1084B1A430260C3699D
:1006B0005A07FCD4C0239B0243608181C3699C0715
:1006C000FCD4036802221343036010BD0400004001
:1006D000037EDA07FCD5018570470000027E012306
:1006E0005107FBD5428B1A4207D1428BDA401A429E
:1006F00003D1428B92081A4202D0034B01221A7096
:10070000008DC0B27047C0467E00002070B50368FF
:10071000041C988B1A1C0821FF32084226D0802026
:1007200099839872112353704021144B9171507129
:100730005E68134DC0202E40800506435E605E69F2
:100740003540284358610F4818600F4818615D68AC
:100750000E4828408025AD02284358605868800B19
:100760008003586000235171237105E0137ADA0683
:1007700002D5201C00F0E4FA207970BD9C01002015
:10078000FFFFFF8F9C0000201C010020FF3F00F0B6
:10079000002303714371044B016083600B780222D4
:1007A00013430B707047C0460D07000038B5364B39
:1007B0002021DA6901200A43DA61344B06241A78D1
:1007C00002431A70324B0F2219789143197019782D
:1007D000214319702F490C782043087019780A407A
:1007E0001A701A7860210A431A702B4B2B4A5A80D0
:1007F0005A7852B2002AFBDB294B01211A780A43AE
:100800001A709A78D107FCD426480268510B1F222F
:100810001140914200D1052111408C011D8D2249CA
:100820002940214319850468A10C0A401F2A00D1E0
:100830001D221C8D1F210A408C4322431A85026809
:100840000721D20D0A408A4200D103220A40188DA6
:100850001103164A02400A431A8519787F220A407A
:100860001A701A78042112480A431A7058621A89B9
:100870000C218A431A811A8901218A431A81002195
:10088000802201F0A0F938BD000400405844004126
:100890003C44004159440041000C00400640000027
:1008A00000500041246080003FF8FFFFFF8FFFFFF2
:1008B0009C010020F7B5141C1F4A5F0101971D1C05
:1008C000D319061C5869271C4000400F0330103311
:1008D000C74006D00F1C8022596812060A435A608E
:1008E00009E02F1C7B1E9F41144BBF01FF18381CD1
:1008F000221C01F05FF901990F4808354218176171
:10090000131C5269A104920B890C92030A435A6189
:1009100059690B4A0A405A616B01F3180222DA71D5
:100920005979802252420A435A716B01F318DB79DC
:100930009A07FAD5201CFEBD9C0100201C01002056
:10094000FF3F00F0F8B51A4E051C3378141C002B3D
:1009500012D1184B184A1A645A6C920B92035A64BB
:10096000586C164A02405A64A2235B00EA5C40209D
:100970000243EA54012333704827FF37EA5D01231D
:10098000134012D00B4B5A6C9204920CA24202D22A
:100990005C6CA404A40C081C221C074901F00AF991
:1009A0000123EB550023337000E01C1C201CF8BD14
:1009B0007F0000209C010020DC000020FF3F00F0B1
:1009C000FF3083792022002900D110221343837144
:1009D00070470000084BFF305A69920B92035A612E
:1009E00002230372827980235B4213438371037A6B
:1009F0009A07FCD57047C0469C01002080235B42CB
:100A00001943C9B28172704770B5A02303225B00FD
:100A1000C254134B134A5C6CC021144089050C432B
:100A200046255C64FF35402444550F4D30261D6437
:100A300090256D0046555D6B1540294392255963FD
:100A40006D0080214155094D1D63B0256D00445551
:100A50005C6F22405A67B2235B00C15470BDC04630
:100A60009C010020FFFFFF8FDC0000205C010020C4
:100A7000024B5B785BB2002BFADB7047000C004046
:100A8000024BDB68DA06FBD57047C0460008004021
:100A9000F8B52A4B1E22596891430222114359602E
:100AA000274B28491E1C9982998A0A439A82F36827
:100AB0000227234C3B42FAD0234D0123AB60FFF7C2
:100AC000D7FF224B6B60FFF7D3FF8223DB016B80E4
:100AD000FFF7CEFFA38C80229343A384FFF7D0FFC0
:100AE0001B4BE362FFF7CCFFA38C1A4A1343A3848A
:100AF000FFF7C6FFA38C1F43A784F3681A06FCD533
:100B00000F4BDB685A06F8D50024FFF7B9FFAC603D
:100B1000FFF7AEFF104B6B60FFF7AAFF0F4B104AB9
:100B2000C0215A600F4A0906106A0002000A0143F8
:100B3000116207229C601A60F8BDC0460040004167
:100B4000000800400C060000000C004001050100F8
:100B5000B805FF7D040A00000007030010E000E074
:100B6000E703000000ED00E00EBEFEE70DBEFEE76D
:100B700005BEFEE702BEFEE70E4A0F4838B58242C8
:100B800004D10E4A0E4B93420ED10AE00D4C944212
:100B9000F7D00023D1188842F3D9E55804330D600B
:100BA000F8E700F011F804E09342FAD2002102C302
:100BB000FAE7FEE7000000205C000020AC03002004
:100BC0005C000020D41E000038B5344D2B68013382
:100BD0001AD0334B2A1D1A60EAB2002A14D1314BC5
:100BE000197801231940304B0AD118682F4A9042D6
:100BF00001D1196008E01A602D4A013A002AFCD19F
:100C00001A602C4B01221A70FFF742FF62B6FFF701
:100C100027FD284B284C1B78002B0AD02B6883F328
:100C200008881E4BFF229343A3601D4B1B681B6863
:100C3000184700F09DFD00F04FF8204B8022520332
:100C40009A601F4B1F4A051C5A60216AC022090284
:100C5000090A12060A43226200229A6007221A60D9
:100C6000AB68281C9847184B002801D001221A7045
:100C70001A78002A05D0002000F08CFA00F004FB5E
:100C8000FCE71B78002BEBD100F0E6FD0028E7D055
:100C9000012000F07FFA00F0F7FAFCE700200000E6
:100CA0001C02002038040040FC7F002035817307BF
:100CB00048E801008000002000ED00E00044004111
:100CC00010E000E0E70300008100002008B5FFF716
:100CD00033FB00F0C3FA08BD10B5054B054C23608B
:100CE000FFF764FD201C2168FFF752FD201C10BD9A
:100CF000005000412002002070B5051CC0B0081C47
:100D0000161C0C1C00F067FF40006A4603230230EB
:100D10005370107076080123E218013A11785A00D6
:100D2000002906D1281C69460023FFF7C3FD40B007
:100D300070BDB342F6DA684681520133ECE7000039
:100D4000F7B5BA4A04681378B949271CFF37051C60
:100D5000102038720B705378B648B74E03709378F2
:100D60003380D178338809020B4333801179B34B38
:100D70001980517918880902084318809079B04980
:100D80000880D2790888120202430A8040227A71D0
:100D9000A84F3A78A64F120238780F1C0243A94890
:100DA0008446181C624500D1C2E020DC8021490045
:100DB0008A4200D16EE109DC812A00D192E0822AC8
:100DC00000D195E0802A00D064E18BE081235B00B4
:100DD0009A4200D1CFE000DA58E1C0239B009A424A
:100DE00000D157E1984B9A4200D14FE152E1902354
:100DF0001B019A4269D015DCD023DB009A4222D035
:100E000088231B019A4269D0A023DB009A4200D0BC
:100E100040E1201CFFF7DEFD3188286889B2FFF72A
:100E2000EDFD3BE1894B9A4200D12FE100DC31E13D
:100E3000874B9A4200D11DE1864B9A4200D029E1AE
:100E400033886B7122E133881B0A012B08D10B8890
:100E500012222868934201D80A8892B27E4911E191
:100E600033881B0A022B08D10B884322286893423F
:100E700001D80A8892B2794904E133881B0A032B0E
:100E800000D007E13388DBB2012B17D0002B07D04D
:100E9000022B00D0FEE00A882868D2B2704911E027
:100EA000042201A86F4900F085FE3B8804222868CF
:100EB000934201D83A8892B201A9E3E00A882868EF
:100EC0006949D2B2FFF718FFE8E03388201C2B7184
:100ED000FFF780FD201CFFF797FDDFE0291C01C90B
:100EE0000122CFE0614900230B8028680222CAE07A
:100EF0005E4900220A801888502210405C4A107017
:100F00001E880F20304018801888032800D9C1E0BF
:100F100012781B8808335B01E418A379002A01D0FA
:100F20009B0600E0DB06DB0F0B8028680222A9E0AD
:100F300019887F2291434E4AC9B2117018880F2137
:100F4000014019803188002900D0A3E019880029C8
:100F500000D19FE01988032900D99BE012781B88F3
:100F600008335B01E318002A02D020225A718DE079
:100F7000102159718AE002887F239A433C4BD2B2F8
:100F80001A7001880F220A4002803288002A00D09D
:100F900080E00288002A00D17CE00288032A00D980
:100FA00078E01B78002B1FD0038808335B01E3181F
:100FB0009B799A066AD50388202208335B01E318DF
:100FC0001A71038808335B01E318DB795F065DD58E
:100FD0000388402208335B01E318DA710388022298
:100FE00008335B01E3181EE0038808335B01E31854
:100FF0009B79D9064AD50388102208335B01E31890
:101000001A71038808335B01E318DB799A063DD532
:101010000388202208335B01E318DA710388012278
:1010200008335B01E3181A7130E0C0469C000020D1
:1010300083000020880000208A0000208C0000200F
:1010400086000020020300000103000021200000B0
:10105000A121000021220000241C00000400002027
:101060000C1C0000FC1B0000001C00008400002081
:10107000820000200B8808222868934201D80A8841
:1010800092B207490023FFF715FC07E0201CFFF789
:10109000A1FC03E0201C0121FFF792FCF7BDC04634
:1010A0004800002007B5054B0122019001A91868EE
:1010B000131CFFF7FFFB01200EBDC04620020020DD
:1010C00013B5054B6C4607341868211C0122FFF745
:1010D00039FC207816BDC0462002002010B5074C10
:1010E000201CFFF713FB031C0020834205D022685D
:1010F0004823FF33D05C0123184010BD200200209C
:1011000010B5054A0C1C031C191C10680123221C75
:10111000FFF7D0FB201C10BD2002002070B5084C4A
:10112000061C201C0D1CFFF7F1FA0023984205D085
:101130002068311C2A1CFFF705FC031C181C70BD1D
:1011400020020020F8B50C4C051C201C0E1CFFF7DB
:10115000DDFA0023271C341C98420AD0002C07D04B
:10116000291C221C3868FFF7EDFB241A2D18F5E71F
:10117000331C181CF8BDC0462002002008B5031C13
:10118000081C111C9847024B64221A8008BDC046F7
:1011900092000020012805D1054B064A1A60064B33
:1011A000187004E0002802D1044A014B1A6070470D
:1011B00090020020581C000098000020A41C000091
:1011C00030B50A1C1C4985B00978031C00292AD0B7
:1011D000042A01D1006804E0022A01D1008800E05D
:1011E0000078520004A98B180B3B9C1AA3420BD029
:1011F0000F210140092902D83025294300E0373169
:1012000019700009013BF1E701A930230B70782325
:101210004B700A208B1898700D20D870074B043241
:101220001B68D86803E005490968C868191CFFF7FE
:10123000A5FF05B030BDC0468E0000209002002002
:1012400072B6EFF30883044A1360036883F30888D7
:10125000436818477047C04694020020084B1A881C
:10126000002A03D01A88013A92B21A80054B1A88D4
:10127000002A03D01A88013A92B21A807047C046F9
:101280009200002090000020F0B591B008A9CC4A4F
:101290000B1C31CA31C351CA51C360CA60C3C94BA8
:1012A000C9489A687A255203520F92005258C7498A
:1012B00002609C68A4B262430C60C54900240A60C5
:1012C000C44A1460C44C2570C44CC54D2368281C06
:1012D0001B6940219847002802D0C24B64221A8023
:1012E000C14B00221860C14B1D60C14BC04DBE4FA9
:1012F0001A602A683B689A42E6D2BC4B1B681A788F
:10130000FF2A00D114E2232A00D0EBE1B94E337852
:10131000002B06D0B14BB8491B680222D868FFF7F2
:101320002DFFAD4B1B78532B3CD13B682A68934271
:101330001ED9AE4801322A609A1AB04B01681B6868
:1013400001310160AE4E9A4201D2326000E033605A
:10135000A04832680068049000F02CFC33682968CB
:101360005A182A60A14A1668F1181160A54A13702C
:101370002B68013B2B609D4B1A68013A1A60A14B08
:101380009E4A1B7811688B420AD222689148C91A7A
:10139000006892699047002802D0924B64221A801C
:1013A000C0468DE1522B0AD18A48944A23680068CE
:1013B00011685B69039098476422934B0DE04F2BB3
:1013C00005D1844B8D4A1B6812681A7078E1482B4E
:1013D00005D1804B894A1B6812681A8070E1572B2F
:1013E00005D17C4B854A1B6812681A6068E16F2B37
:1013F00003D1784B0121186807E0682B08D1754BA1
:101400007E481B6802211B880360FFF7D9FE57E165
:10141000772B06D16F4B79481B6804211B6803604A
:10142000F3E7472B13D1754B1868FFF709FF774B8C
:101430001B6883F3088862B6754B1B78002B00D1BC
:101440003EE1664B06201B681B68984738E1542B29
:1014500004D101233370614B1B6864E04E2B0CD127
:101460003378002B06D15D4B63491B680222D86894
:10147000FFF784FE0023337022E1562B57D12368F7
:101480006449D8680122FFF779FE23686249D86869
:101490000322FFF773FE614D2368291CD8680122DF
:1014A000FFF76CFE23685E49D8680D22FFF766FEE1
:1014B0002368291CD8680122FFF760FE4B4F4C4D72
:1014C0005849002339602B603A1C281C13685E1CA5
:1014D00016601B780593002B03D00368013303606B
:1014E000F4E73E4E2A683368D868FFF747FE336852
:1014F0004A49D8680122FFF741FE059929604A4907
:1015000039603A4A1368581C10601B78002B04D0CD
:10151000374B1A6801321A60F3E733682A68D868D3
:10152000FFF72CFE3368D86833490222C6E0334AFD
:10153000582B17D1244E264D366813682A68B100FF
:1015400093420AD21F4D5808E861384828801D4D43
:10155000287DC607FBD55B18F2E7204B34491B6892
:10156000D868AAE0592B79D112681A4B3149002A60
:1015700002D11B680B606CE0124D086819686B683B
:10158000104E8025AB4392087360002A61D02A4B2D
:101590000C4D2B800B4E337DDD07FBD500230A4D10
:1015A0002D680195AD08AB4203D3244D054E35801F
:1015B00046E09342F9D09D00465901334E51EEE783
:1015C000381C00000040004148020020400200207A
:1015D0003C0200208C0200203802002090020020F3
:1015E0004C02002090000020300200203402002035
:1015F000440200208E000020981C00009802002069
:101600009C0200202C020020920000209402002066
:1016100098000020741C00009D1C0000761C000037
:10162000C01C0000781C0000841C000002A5FFFF05
:101630008D1C00009400002044A5FFFF04A5FFFFBF
:101640003F4E357DEE07FBD59D0049194019D21A52
:101650009BE73C4B3C491B68D8682EE05A2B2FD1A6
:101660003A4B17681D680026EF19BD4206D028784E
:10167000311C00F013F90135061CF6E7314B3449F3
:101680001B680122D868FFF779FD07230F2232403B
:10169000111C36093031092A00DD07311820C01825
:1016A0006A468154013BF1D2236806A9D868082212
:1016B000FFF764FD23682749D8680322FFF75EFD22
:1016C000254B7A221A70254B00221A60244B1B7876
:1016D00093422DD01B4B23491B680122D868FFF78A
:1016E0004DFD25E0111C3039C8B21C4B092804D827
:1016F0001D682A01114319601AE0111C413905299E
:1017000003D81E68373A310106E0111C61390529FA
:1017100004D81868573A01010A4308E02C2A03D17B
:101720000A4A1968116001E00B490A7000221A6028
:101730000D4B1A6801321A600C4B1A680132D5E55C
:101740000040004190020020911C00008C0200200B
:10175000951C0000971C0000380200209802002011
:101760008E0000209B1C0000440200203402002058
:1017700010B51C4B01201A78032402431A701A4B2F
:101780000F2219789143197019782143197017495C
:101790000C782043087019780A401A701A783021A2
:1017A0000A431A70124B80211A6A0A431A62114BBB
:1017B000114A5A805A7852B2002AFBDBC4220F48E1
:1017C0000F499203FEF756FF0E4A002313700E4A8C
:1017D00013700E4A13700E4A13700E4A13700E4A9D
:1017E000137010BDD6440041BB440041D7440041B2
:1017F00000040040000C004019400000001C0042A2
:101800002AF60000A002002027030020A1020020E9
:10181000A4020020280300202503002008B5C1B23F
:101820000248FEF755FF012008BDC046001C0042DB
:10183000024B187E4007C00F7047C046001C004294
:1018400008B5FFF7F5FF0028FBD00248FEF746FF7A
:1018500008BDC046001C004208B5FFF7E9FF0023A1
:10186000984205D0FFF7ECFF031C233B5A4253413B
:10187000181C08BD70B5041C0D1C4618B44204D0D9
:101880002078FFF7CBFF0134F8E7281C70BD10B5B6
:10189000041CFFF7D5FF2070012010BD0B0A584033
:1018A000034B4000C05A0902484080B27047C0460E
:1018B000CE1C0000F7B50024051C0F1C261CBC42E2
:1018C00020D0FFF7BDFF114BC0B21B780190002B59
:1018D0001AD1311CFFF7E2FF0D4B061C1A88002AB3
:1018E00004D10C4A11782A1C002907D001996A1CDE
:1018F0002970802F02D11988013919800134A4B2CE
:10190000151CDCE7301C00E00120FEBD2503002093
:10191000A202002026030020F0B53E4E85B0002232
:1019200003900C1C32703C4B914201D1012201E02A
:101930003A490C801A707F231C4201D080349C43AA
:10194000FFF77EFF3378C0B2002B07D0002535703B
:10195000FFF776FF3378C0B2AB4236D1432803D0CD
:10196000712853D01528EBD1012300930120FFF7F4
:1019700055FF0098FFF752FF00998025C843C0B279
:10198000FFF74CFF039B00270293244A1388002B88
:101990001DD1214901930978002918D10198FFF739
:1019A0003DFF391C0198FFF779FF013D071C002D11
:1019B000EBD1000AC0B2FFF731FFF8B2FFF72EFFFC
:1019C000FFF73EFF3378002B0AD035701FE00299F5
:1019D000013B09781380029B019101330293DDE7FB
:1019E000C0B2062807D1009B03990133DBB28031D6
:1019F0000093803C0391002CB8D10420FFF70EFF28
:101A0000FFF71EFF044B01251C7000E00025281C79
:101A100005B0F0BD2503002026030020A20200200F
:101A2000F0B5384C87B0002301902370994201D162
:101A3000012301E0344A1180344A642613704320A4
:101A4000FFF7ECFE324FFFF7F3FE002803D1002F23
:101A500003D0013FF7E7002F03D1013E002EEED166
:101A60004DE00125FFF7ECFE2378002B38D1C0B202
:101A70000290012805D004283DD10620FFF7CEFEB4
:101A800039E005AE0221301CFFF714FF01988021D8
:101A9000FFF710FF23780390002B18D1FFF7D0FE3B
:101AA0000702FFF7CDFEBFB223783F18BFB2012B6C
:101AB0000DD0039B9F4207D13378AB4204D1EB4357
:101AC0007278DBB29A4204D01820FFF7A7FE0023F9
:101AD00003E00620FFF7A2FE029B2278002A02D034
:101AE000002626700BE0012B05D1019A6B1C803279
:101AF000DDB20192B6E7054A002313700126301CBF
:101B000007B0F0BD25030020A2020020260300201C
:101B100000350C00002934D00123002210B4884283
:101B20002CD301242407A14204D2814202D209010C
:101B30001B01F8E7E400A14204D2814202D249002D
:101B40005B00F8E7884201D3401A1A434C08A042D0
:101B500002D3001B5C0822438C08A04202D3001B66
:101B60009C082243CC08A04202D3001BDC0822437D
:101B7000002803D01B0901D00909E3E7101C10BCA1
:101B80007047002801D00020C04307B4024802A1DA
:101B90004018029003BDC046190000000029F0D093
:101BA00003B5FFF7B9FF0EBC4243891A1847C04678
:101BB0007047C04610B50023934203D0CC5CC45498
:101BC0000133F9E710BD031C8218934202D019704B
:101BD0000133FAE770470023C25C0133002AFBD1CE
:101BE000581E7047F8B5C046F8BC08BC9E46704702
:101BF000F8B5C046F8BC08BC9E467047040309040B
:101C000041726475696E6F204C4C4300417264757B
:101C1000696E6F204D4B522047534D203134303088
:101C200000000000120100020200004041235200A7
:101C30000002010200010000080000001000000086
:101C400020000000400000008000000000010000B3
:101C500000020000000400001D18000041180000F0
:101C600031180000751800008F18000019190000C5
:101C7000211A00007600200041707220313120329C
:101C80003031390031333A30393A353400580A0DA1
:101C900000590A0D005A00230A0D003E00322E3072
:101CA00000000000A5100000C1100000DD100000C1
:101CB000011100001D11000001110000451100007C
:101CC0005B41726475696E6F3A58595A5D00000045
:101CD0002110422063308440A550C660E77008811F
:101CE00029914AA16BB18CC1ADD1CEE1EFF1311296
:101CF000100273325222B5529442F772D66239936F
:101D000018837BB35AA3BDD39CC3FFF3DEE36224E5
:101D1000433420040114E664C774A44485546AA5BE
:101D20004BB528850995EEE5CFF5ACC58DD5533675
:101D3000722611163006D776F6669556B4465BB70E
:101D40007AA719973887DFF7FEE79DD7BCC7C44845
:101D5000E5588668A7784008611802282338CCC95E
:101D6000EDD98EE9AFF9488969990AA92BB9F55AD5
:101D7000D44AB77A966A711A500A333A122AFDDBAE
:101D8000DCCBBFFB9EEB799B588B3BBB1AABA66CA5
:101D9000877CE44CC55C222C033C600C411CAEEDFE
:101DA0008FFDECCDCDDD2AAD0BBD688D499D977EB5
:101DB000B66ED55EF44E133E322E511E700E9FFF4E
:101DC000BEEFDDDFFCCF1BBF3AAF599F788F889104
:101DD000A981CAB1EBA10CD12DC14EF16FE18010E8
:101DE000A100C230E3200450254046706760B983EB
:101DF0009893FBA3DAB33DC31CD37FE35EF3B10238
:101E00009012F322D2323542145277625672EAB5FA
:101E1000CBA5A89589856EF54FE52CD50DC5E23487
:101E2000C324A01481046674476424540544DBA7CA
:101E3000FAB79987B8975FE77EF71DC73CD7D326D7
:101E4000F2369106B01657667676154634564CD95A
:101E50006DC90EF92FE9C899E9898AB9ABA9445827
:101E6000654806782768C018E1088238A3287DCB2A
:101E70005CDB3FEB1EFBF98BD89BBBAB9ABB754A77
:101E8000545A376A167AF10AD01AB32A923A2EFDBA
:101E90000FED6CDD4DCDAABD8BADE89DC98D267CC7
:101EA000076C645C454CA23C832CE01CC10C1FEF0A
:101EB0003EFF5DCF7CDF9BAFBABFD98FF89F176E17
:101EC000367E554E745E932EB23ED10EF01E00004B
:101ED000000000000114000009024300020100801C
:101EE0003209040000010202000005240010010470
:101EF00024020005240600010524010001070583D2
:101F0000030800FF09040100020A00000007058120
:101F100002400000070502024000000000C201006C
:101F200000000800690000004100000000000000FF
:102000000080002011490000F9480000F948000054
:1020100000000000000000000000000000000000C0
:10202000000000000000000000000000F94800006F
:102030000000000000000000F948000065490000B1
:10204000F9480000F9480000F9480000F94800008C
:10205000F9480000F9480000F9480000FD48000078
:10206000F9480000F9480000F9480000F94800006C
:10207000F94800004948000039480000F9480000CC
:10208000F9480000F9480000F9480000F94800004C
:1020900000000000F9480000F9480000F94800007D
:1020A000F9480000F9480000F9480000F94800002C
:1020B0000000000010B5064C2378002B07D1054B1B
:1020C000002B02D0044800E000BF0123237010BDA4
:1020D000700200200000000038C50000044B10B55D
:1020E000002B03D00349044800E000BF10BDC046E8
:1020F000000000007402002038C5000010B5040084
:102100000C3004F0CDFE200010BD000073B5134C60
:1021100013492000FA2602F09CFF0125B6002B008F
:102120002A001049104800F0E1FB032807D00F49AE
:10213000200002F09FFF300002F058FCEFE700950E
:102140000B4B0C4A0C490D4800F0A4FA0428EED1C0
:102150000B49200002F08EFF73BDC0462C09002001
:1021600027BA0000E9BA0000040300203CBA0000CE
:10217000A0BA00008BBA0000DCBA0000D802002030
:102180004ABA000073B5124D124B134A1349280086
:1021900001F032FB124C13492000FA2602F059FFDD
:1021A000B6000023104A00931049114B280001F09B
:1021B000CDFB002807D10F49200002F04AFF300074
:1021C00002F014FCEDE70C49200002F053FF73BD50
:1021D000240300208C0200205B0700008CBA000062
:1021E0002C0900205EBA0000A1BA0000B6BA0000B7
:1021F000DBBA00003ABA000076BA000010B5FFF76B
:1022000085FFFFF7BFFF10BD30B50500BBB00C0068
:1022100002A8234904F08EFE224908A804F08AFE91
:10222000290005A804F086FE05A908A804F058FFB7
:102230001D4904F062FF010002A804F010FF05A888
:1022400004F02EFE08A804F02BFE0222216808A844
:1022500004F0D2FE08A902A804F001FF08A804F0C7
:102260001FFE124902A804F000FF08A90023C8229B
:1022700002A804F0A9FF08A807F03DFF0022030010
:10228000019200920A4908AA0A4801F029FB08A90C
:10229000094802F0EFFE02A804F002FE3BB030BD98
:1022A00008BA0000A4BC00000ABA00000DBA000081
:1022B0000FBA0000240300202C090020962110B53D
:1022C0008901054803F006FBFFF798FF012106206E
:1022D00002F084FD10BDC0462C09002070B51348E3
:1022E00001F09AFB02F04CFB114D2B68C01AFA2347
:1022F0009B00984214D90F4C06202168012910D167
:1023000002F0B8FD00232360206805F0BBFA0A4EF6
:10231000306031000948FFF777FF02F031FB286099
:1023200070BD02F0A7FD0123EDE7C04624030020A5
:102330002003002038000020CC02002004000020F0
:1023400073B500241748230022000094210002F0F6
:102350003FFE154E0121300000F066FD134D14497B
:102360002A00300005F0C8F8124E300000F0BAF82C
:102370002A001149300005F0BFF8104E210030004E
:1023800000F0BEF92A0030000D4905F0B5F80D4CFB
:102390008021200001F0F3F92A000B49200005F00C
:1023A000ABF873BDD00200208C020020000000209A
:1023B00089290000D8020020CD230000040300205A
:1023C000FD200000240300208D38000010B504001B
:1023D000064B010008330360054800F0DBFF2000D6
:1023E000183004F05DFD200010BDC046A4BB000005
:1023F000D803002010B50400FFF7E8FF200004F028
:10240000F7FF200010BD00007FB50C00050031492A
:1024100001A804F08FFD01A9200004F098FE060039
:1024200001A804F03DFD002E12D02B4901A804F0B4
:1024300081FD01A9200004F096FE040001A804F02B
:102440002FFD0323002C00D104235B426B627FBD70
:10245000224901A804F06EFD01A9200004F077FED6
:10246000060001A804F01CFD002E1AD02C2120002B
:1024700004F0F1FE431CE7D0421CA368210001A830
:1024800004F01CFF01A804F086FF686201A804F0B4
:1024900007FD6B6A5A1C01D1013BD7E7002BD6DC44
:1024A000D2E70F4901A804F045FD01A9200004F07E
:1024B0004EFE060001A804F0F3FC002EC7D0A3686E
:1024C0002000591E04F07CFE3028C0D101232B755A
:1024D000BDE7C04682BB000067BB00008EBB0000AA
:1024E00098BB00000A4B70B5083300250360012338
:1024F000040045608560C56003750649183004F026
:1025000019FDA5622100044800F034FF200070BDD1
:10251000A4BB00001BBD0000D80300207FB5514EB6
:102520000400300000F04EFE051E52D02369581EF4
:1025300013284ED8002304F0E7FF0A12181F23299E
:102540002D34383F434951575B667E84898F464915
:10255000300000F025FD02232361002539E0012D24
:1025600001DD236165E00323F6E762683F4930003F
:1025700000F03AFD0423EFE7012DF2DC0523EBE741
:102580003B49300000F030FD0623E5E7012DE8DC93
:102590000723E1E7A2683749300000F025FD082352
:1025A000DAE7012DDDDC0923D6E7E26832493000A5
:1025B00000F01AFD0A23CFE7012DD2DC0B23CBE775
:1025C0002E49300000F0ECFC0C23C5E7012D03DDA3
:1025D0002361280004B070BD0D23BDE728493000F9
:1025E00000F0DEFC0E23B7E7012DBADC0F23B3E7C2
:1025F00021003000183100F0BBFE2249300000F00D
:10260000CFFC1023A8E7012D0EDC1F4901A804F020
:1026100091FC200001A9183004F0A5FD060001A8D6
:1026200004F03EFC002E01D100239AE70023236131
:1026300004332375CDE71549300000F0B1FC1223B7
:102640008AE7012D00DD8CE7132385E71049300070
:1026500000F0A6FC14237FE72361012DE9DC0123B0
:10266000E7E7C046D8030020EEBA0000F9BA000040
:102670000ABB000018BB000029BB00003ABB0000E9
:1026800050BB00005DBB000057BC00006ABB0000EF
:1026900077BB000070B50400E360012304A8007854
:1026A0002361DB186160A2602375002817D002F057
:1026B00067F906002000FFF731FF051E09D1A36A64
:1026C000002B08D002F05CF9A36A801B984202D369
:1026D0002561207D70BD642002F088F9EAE72000C2
:1026E000FFF71CFFF5E7000007B500210348009144
:1026F0000B000A0002F06CFC07BDC046B0030020CE
:1027000070B5002504000570456085600E000C3032
:10271000054904F00FFCA561AE4202D0034800F069
:102720002BFC200070BDC0461BBD0000D80300205C
:10273000F0B5037885B005000224002B1FD0604E51
:10274000300000F03FFD041E19D06F680F2F16D81F
:10275000380004F0D9FE08174150565C60666A7074
:10276000747A7E89A9AF290030000C3100F000FE98
:102770005449300000F014FC01233C006B60200041
:1027800005B0F0BD012C02DD00246C60F7E72E00DF
:102790004D490C3601A804F0CDFB01A9300004F02E
:1027A000E2FC040001A804F07BFB002C03D004230E
:1027B0006B600024E3E7454901A804F0BBFB30004F
:1027C00001A904F0D0FC060001A804F069FB002E6A
:1027D00013D002236B60D2E7AB68002B0DD0290029
:1027E00030000C3100F0C4FDAA683949300000F017
:1027F000FBFB0323DCE7012CD9DD002302242B7033
:10280000BDE73449300000F0CBFB0523D0E70623B9
:10281000012CCDDDF1E73049300000F0C1FB07238A
:10282000C6E70823012CC3DDE7E72C49300000F0A0
:10283000B7FB0923BCE70A23012CB9DDDDE72849F2
:10284000300000F0ADFB0B23B2E7012CD5DC0C23EC
:10285000AEE7290030000C3100F08AFD214930003C
:1028600000F09EFB0D23A3E7012CC6DC28006B695A
:102870000C30591E04F0A4FCFB230340302BE6D09F
:10288000312B02D03038082804D10E236B600B3B6B
:102890002B708EE7022803D10C2328706B6088E729
:1028A000032800D06BE7A8E70F49300000F078FB61
:1028B0000F237DE7012CA0DC102301246B605EE771
:1028C000D8030020C1BB0000CABB0000D0BB000081
:1028D000D8BB0000E5BB0000EFBB0000FDBB000063
:1028E00007BC0000B8BB000015BC000070B50400B8
:1028F0000E00134811001D0000F0C4FC002803D195
:1029000000232370207870BD01230020A66023706F
:1029100060608542F7D002F033F805002000FFF731
:1029200007FF0028EED1A369002B05D002F028F89C
:10293000A369401B9842E3D2642002F057F8EDE708
:10294000D80300200020704713B56B460268D97188
:102950000733546819000122A04716BD8069013071
:10296000431E9841C0B2704713B56B46DC1D036827
:1029700001225B6A21009847012801D1207816BD09
:1029800001204042FBE77047094B01001A0010B5D7
:10299000040008325433026003611031054800F02E
:1029A000F9FC2000343004F07BFA200010BDC04652
:1029B000BCBC0000D803002010B50400FFF7E4FF02
:1029C000200004F015FD200010BD0000F0B5474EBA
:1029D00089B00400300000F0F5FB051E17D0236A13
:1029E000581E092813D8002304F08EFD0514373E25
:1029F00043494D6E737A21003000343100F0B8FC49
:102A00003B49300000F0CCFA022300252362280065
:102A100009B0F0BD012D0FDC26003649343605A87B
:102A200004F088FA05A9300004F091FB070005A81E
:102A300004F036FA002F02D100232362E7E7E36BAC
:102A40003000591E04F0BCFB23003038A061323343
:102A50001B78002B15D00323D7E7A2692649300045
:102A600000F0C2FA0423D0E70523012DCDDD0923B0
:102A7000CBE72249300000F093FA0623C5E7012D89
:102A8000F5DC0723C1E7E36A218EA269002B06D09B
:102A9000009130001A4900F0A7FA0823B5E7230097
:102AA00028331B78039121002B31097830000291E3
:102AB00021002A31097801912100293109780091FA
:102AC000104900F091FAE8E7012DD0DC0122E26123
:102AD000B3E7A2690C49300000F086FA0A2394E7B4
:102AE000236201235B42A36191E7C046D803002023
:102AF00024BC00002FBC000038BC000049BC000012
:102B00005ABC00006EBC00008BBC000010B503680E
:102B100004001B699847002804DDA169034800F000
:102B200031FD10BD01204042FBE7C04634040020C7
:102B300070B50025826904000562AA4211DB094EC6
:102B40000949300000F050FA2A000849300000F02E
:102B50003FFBA169064800F055FC01235B42A361DD
:102B6000E56170BDD80300208BBC00001027000079
:102B70003404002010B504000D4800F053FAA16998
:102B800000204B1C12D00B4800F066FC002808DB2C
:102B9000230032331B780120002B07D0E369002B80
:102BA00004D1236820009B6A9847002010BDC046CE
:102BB000D80300203404002010B5037D0400002B4E
:102BC0000AD023682000DB6B98470028F9D0A16960
:102BD0004B1C07D1002010BD0368DB6B9847002811
:102BE000F5D1F7E7044800F037FC0028F3DA236852
:102BF00020009B6A9847EDE73404002070B5836994
:102C000004000E001500013301D1002070BD002A20
:102C1000FBD003681B6998470028F6D02B003200D0
:102C2000A169024800F0BEFCF0E7C0463404002071
:102C30007FB50C000500134901A804F07BF901A938
:102C4000200004F084FA060001A804F029F9002EFF
:102C500017D00921200004F0B3FAAB693038834261
:102C60000FD1094901A804F065F9200001A904F079
:102C70007AFA040001A804F013F9002C01D0002313
:102C8000EB617FBDA6BC0000B0BC000008B4024BE5
:102C90009C46103808BC6047312C00000300F0B59A
:102CA00089B0039133331B7804001500002B0CD03E
:102CB00023682000DB6B98470028F9D0A369013313
:102CC00009D10027380009B0F0BD0368DB6B9847D5
:102CD0000028F3D1F5E7354905A804F02BF9802346
:102CE00029005B009D4200D919004900133105A855
:102CF00004F0F7F80027002D54D0802300955B00E6
:102D00009D4200D900932A4905A804F06AF9A169F7
:102D100005A804F0C3F9274905A804F0A6F900990D
:102D200005A804F0CCF9244905A804F09EF9039BFA
:102D3000DB1902930193019B0F221E7833091900BE
:102D400016403031092B01D93733190005A804F09A
:102D50009BF931003031092E00D9073105A804F064
:102D600093F9019B029A013301939B1A009A9342B3
:102D7000E1D3124905A804F078F9114E0599300005
:102D800000F00EF9230033331B78002B03D1009B96
:102D9000FF18ED1AAFE700220A49300000F018FAD8
:102DA0000128F4D005A804F07BF88BE71BBD0000D8
:102DB00097BC0000A1BC0000A3BC0000A4BC0000A4
:102DC000D803002010270000FA2370B500259B00CF
:102DD0008360124B0400456018000830206020001A
:102DE000543323612275A161E561290025622430F5
:102DF00002F0FCF82300012220003233E562258630
:102E000007491D705A70343004F094F821000548C9
:102E1000103100F0AFFA200070BDC046BCBC00000D
:102E20001BBD0000D80300200A00012110B50400DA
:102E30004942FFF7C9FF200010BD10B583690400A7
:102E4000013302D003689B6A9847237D002B0BD087
:102E500023682000DB6B98470028F9D00120237DF0
:102E60002062002B07D110BD23682000DB6B984740
:102E70000028F3D1F7E723682000DB6B9847002890
:102E800003D1643001F0B2FDF5E7A0690130431EC3
:102E90009841E8E74B6810B5028602008362002380
:102EA0003232C3621370FFF7C8FF10BD70B5040063
:102EB0000E0024300021150002F0A0F823000022AB
:102EC0003233E662258620001A70FFF7B6FF70BD28
:102ED00007B50021034800910B000A0002F078F8C2
:102EE00007BDC046B803002007B500210348009184
:102EF0000B000A0002F06CF807BDC046C0030020BA
:102F000007B50021034800910B000A0002F060F8A9
:102F100007BDC046C803002007B500210348009143
:102F20000B000A0002F054F807BDC046D003002091
:102F300010B50400203003F0B3FF200010BD0000E6
:102F400070B58360049B06000025C3600123040064
:102F500020364260057445610576C361016030002A
:102F6000044903F0E7FFE5623000402103F0B9FFB8
:102F7000200070BD1BBD0000014B024A1A60704763
:102F8000080400202C0900200021C36810B58B42E2
:102F900004DB0174180001F06DFF0121080010BD71
:102FA00070B5037C04000D00002B06D0C068002122
:102FB00001F060FF052001F019FD01F0E1FC6369FB
:102FC000C01A132803D81423181A01F00FFD290082
:102FD000206802F04FF820680368DB6898470023F8
:102FE0002376E36170BD00000EB410B50A4C0B49A6
:102FF000A5440400FFAB183304CB02A8019307F0EB
:1030000095F902A92000FFF7CBFF054B9D4410BCAA
:1030100008BC03B01847C046F4FBFFFFFF030000E5
:103020000C040000F0B5040087B0206803681B6939
:103030009847002800D192E0206803685B699847B0
:10304000584BC6B21868002803D0036831001B68CB
:103050009847250020353100280004F015F8277E18
:10306000012F48D05049684603F064FF69462800A4
:1030700004F06DF80026B0420DD04C4903A803F0CF
:1030800059FF03A9280004F06EF8461EB041C6B2ED
:1030900003A803F005FF684603F002FF002E06D0E8
:1030A000012323764249280003F09BFFBDE73F49F7
:1030B00003A803F03FFF03A9280004F054F8070019
:1030C00003A803F0EDFE002FAFD0280004F03AF97A
:1030D000A36A002BE6D001F053FC6061354BB200CF
:1030E000D058002803D0036829001B689847013690
:1030F0000A2EF3D1D6E70A2E97D101F041FC2E49D2
:10310000606103A803F016FF03A9280004F0CFF8BC
:10311000060003A803F0C4FE731C22D0E761E36934
:10312000002B82D0237C002B03D00121E06801F02A
:10313000A1FEE36A002B0CD03100280004F0FCF85B
:10314000280004F0FFF82900E06A03F032FF0023B2
:10315000E362002316492376280003F042FF07B0FC
:10316000F0BD164903A803F0E5FE03A9280004F00A
:103170009EF8060003A803F093FE731C02D00223FE
:10318000E361CCE70E4903A803F0D4FE03A92800AD
:1031900004F08DF8060003A803F082FE731CBED075
:1031A0000323EDE70804002014BD000019BD000052
:1031B0001BBD00000C04002017BD00001CBD00005A
:1031C00024BD000010B50400FFF72CFFE06910BD1E
:1031D00070B5C26204000E0001F0D2FB050001F0E0
:1031E000CFFB401BB04208D22000FFF71BFFE06975
:1031F0000028F4D00023E36270BD00232000E362C6
:103200002030034903F0EDFE01204042F4E7C046C0
:103210001BBD000010B504000549FFF7C1FE0022E8
:1032200064212000FFF7D4FF01384342584110BD0C
:1032300014BD000070B505000E0001F0A1FB0400F4
:1032400001F09EFB001BB04208D22800FFF7E2FF0E
:10325000012804D0642001F0C9FBF1E7002070BD13
:1032600010B507490400FFF79BFEFA2100228900F0
:103270002000FFF7ADFF01384342584110BDC04662
:1032800046BD000070B50400E1230D0061680068D0
:103290005B02994200D919000368DB699847A0686E
:1032A00000281FDB002D1DD0012101F097FD012119
:1032B000A06801F0DFFD642001F098FB0021A06808
:1032C00001F0D8FD27492000FFF7B4FF00280FD0F8
:1032D000E12362685B029A4212D8E06800282DDA86
:1032E000012006E01F492000FFF7A4FF002801D1BC
:1032F000002070BD2000FFF7B3FF0028E2D1F7E700
:1033000019492000FFF770FE002264212000FFF71A
:103310005FFF0128ECD1206803685B6A984764204E
:1033200001F064FB206861680368DB6998470D4918
:103330002000FFF77FFF0028CFD1D9E7012101F05E
:103340004DFD2000FFF720FE08492000FFF728FE72
:10335000002264212000FFF73BFF0138434258411F
:10336000C7E7C0461027000031BD00003CBD00008B
:10337000C1627047002310B5054A98008458002C9C
:1033800001D1815010BD01330A2BF6D1FAE7C046B6
:103390000C040020002310B5054A980084588C4284
:1033A00002D10023835010BD01330A2BF5D1FAE777
:1033B0000C0400202323E12213B5074C00931203D1
:1033C000043B06492000FFF7BBFD054A05492000E4
:1033D00004F092F813BDC046D8030020D0060020A8
:1033E00000000020312F000010B50400044B5422CF
:1033F000083308C0002106F0F7F8200010BDC046D1
:103400006CBD000010B50C244C4304196068002802
:1034100005D006F0B1F80023A3606360E36010BD3F
:1034200070B505000024064B083303602100280016
:103430000134FFF7E7FF072CF8D1280070BDC04624
:103440006CBD000010B50400FFF7EAFF200003F098
:10345000CFFF200010BD0000F0B50C244C43041930
:10346000E56889B000900F00002D70D16368002BD3
:1034700006D18020800006F075F8E560A0606060ED
:103480003A4902A803F056FD8023394E3A003949E3
:1034900030009B00FFF7A8FD02AA37493000FFF774
:1034A00097FE012859D1354905A803F043FD05A928
:1034B00002A803F04CFE060005A803F0F1FC002E64
:1034C0004DD02F4905A803F035FD05A902A803F04A
:1034D000A5FE050005A803F0E3FC6A1C00250021F9
:1034E00002A803F00FFF049B02A8591E03F024FF5B
:1034F000049B5B080193019B9D421ED0690002A8BA
:1035000003F046FE6B000678591C02A803F040FE4B
:103510003300303B0278DBB2392E01D9373EF3B2AB
:103520001600303EF6B2392A01D9373AD6B21B011D
:103530006268334353550135DDE76368009AA36041
:103540000C237B43D318DD6002A803F0A9FC0C23F5
:103550005F43009BDF19FD6804E001256D4202A86E
:1035600003F09EFC280009B0F0BDC0461BBD000062
:10357000D803002051BD00001027000060BD0000EE
:10358000A4BC000070B504000D00FFF765FF002823
:1035900005D00C2169436418A368187870BD012018
:1035A0004042FBE7F8B506000C0017001D00FFF7CE
:1035B00053FF002811D0854200DD05000C235C4339
:1035C00034192A00A168380005F0F2FF2800A3682A
:1035D0005B19A360E3685B1BE360F8BD10B5054CA5
:1035E0002000FFF701FF044A0449200003F084FF94
:1035F00010BDC0463404002000000020213400002B
:10360000006810B51C0003685B68984720600028BC
:1036100001D0002010BD06204042FBE7F0B591B07C
:1036200000AF7B610D0019003B6E96B27B606B466C
:10363000BB6033003A616A460833DB08DB00D31A0B
:103640009D4632006846FB60FC6D05F0B1FF00232B
:10365000FA6893559C4201D07A68A354AE68002E54
:1036600009D07B682200F9682868B047BB689D468E
:10367000BD4611B0F0BD6B68002BF7D010220C23B3
:10368000B818F968C01803F055FC10231826FA186A
:103690001449901903F04EFC002C11D01023210086
:1036A0002424FA18101903F045FC1023FA181119F4
:1036B000901903F08EFC1023FB18181903F0F0FB8F
:1036C00010266B6818240C25BA195019111998473F
:1036D000BB19181903F0E4FBBB19581903F0E0FB00
:1036E000C4E7C0461BBD0000436810B50468002B4A
:1036F00002D09847201A10BD01F042F9FAE743685A
:1037000070B504000D00002B03D0984740192060CD
:1037100070BD01F035F9F9E7F7B51D0007000E009F
:10372000140001F02DF9002301902B60002C19D01A
:1037300001F026F9019BC01A089B984212D2386802
:103740002200036831005B6A9847002811DC0020E2
:1037500001F04CF938680368DB6A98470028E5D126
:103760000538FEBD2B680020002BFAD10420404212
:10377000F7E72B6836181B182B60241AD6E70A23A4
:1037800070B58381093B8373FA239B0003610300B7
:103790000D0000210400843341618161C161016237
:1037A00041628162C162016341638163C1630164FB
:1037B000197059709970043319604022443005F033
:1037C00013FF2560681C05F0CDFE6060280005F041
:1037D000C9FEA060200070BD70B5040080690E00B5
:1037E0001500002801D005F0C7FE300006F066FC89
:1037F000E561A06170BD000037B504001D00FFF752
:10380000EBFF65612500236844352800009322689A
:103810006368A16800F054FA220021000A4B2800D6
:1038200000933C323431094B00F063FA2100280048
:10383000074B3031074A00F058FA210028002431A4
:10384000054A00F065FA37BDE9360000FF36000092
:1038500001360000193700001D360000036A10B55C
:103860000400002B11D09A89002A02D0186905F0B3
:1038700083FE236A1A88002A02D0586805F07CFE6D
:10388000206A05F079FE0023236210BD10B5040004
:10389000FFF7E4FFA069002801D005F06DFE606825
:1038A00005F06AFEA06805F067FE200010BD10B5A7
:1038B00004004069002801D1002010BD0368DB6AC4
:1038C00098470128F8D184342078F6E703000022D5
:1038D00010B5406984331A7003689B6A984710BD1D
:1038E000F0B58FB0079314AB0400059106921F78D2
:1038F000FFF7DDFF051E26D01E22002604A9521860
:103900001680069A0BAB0C92079A05990D92159AA0
:1039100009A81A705F7000F0DCFE6A462369029302
:103920000CAB03CB03C220000B9B09990A9A4430CD
:1039300000F054FA230086331870B04203D0200000
:10394000FFF7C4FF350028000FB0F0BDF0B593B00D
:103950001F0018AB1D78040009910892002D1AD1A0
:10396000FFF7A5FF002802D02000FFF7AFFF606936
:10397000E36920639AB20368A1691B6A984700282B
:103980000BDCFD2386342370280013B0F0BD012525
:1039900084342570F8E7436903630BAD2A001D4B9F
:1039A00043CB43C243CB43C21B6828001360A389A7
:1039B00009992B81A37BAB7200F08BFE089B002B37
:1039C00009D019000EA800F084FE002F03D03900A2
:1039D00010A800F07EFE23696A4606932300853313
:1039E0000593236A04930EAB43CB43C220001B68AC
:1039F00044301360AB680B996A6800F09CF92300AF
:103A0000863318700028C2D02000FFF75FFF002522
:103A1000BAE7C0467CBD0000F8B50400FFF747FFD9
:103A2000051E15D060692700036826001B699847AA
:103A300044370100863600280CD02269380000F097
:103A40006AF93070002805D02000FFF73FFF0025FD
:103A50002800F8BD2169380000F020FA30700028F5
:103A6000F6D0F1E707B50021034800910B000A00EA
:103A700001F0AEFA07BDC0468C040020F0B58B18EB
:103A80001600026987B00400039100259A4216D2FD
:103A900001201AE0606BE36B9847002814DD0023D7
:103AA0000593039B00905919A369721B5918606A0A
:103AB00005ABA76AB847002804D1059BED18AE42B4
:103AC000E8D8002007B0F0BD04204042FAE7F0B586
:103AD00004000E00002585B0AE4205D8206BA36B14
:103AE00061689847002015E0606BE36B98470028F9
:103AF0000EDD00230393636900905919721B03AB19
:103B0000606AE76AB847002804D1039BED18E3E731
:103B10000420404205B0F0BDF0B591B007930023FA
:103B200004000F0006920593002101223970200045
:103B3000FFF7A4FF021D24D0002839D13A0001214B
:103B4000A06900F0E1FA051E32D10D906E1C012231
:103B500031002000FFF792FF002829D1A3690DAAA8
:103B6000581C310000F0F4FA431C19D000281FD172
:103B70000D9A002A16D10D9B059A01339B189B19AB
:103B800005933878002800D189E003380A284FD8F7
:103B900003F0BAFC104E576E4E4E4E4E4E4E7E0007
:103BA0003500D3E7A91C2000FFF768FF0028E2D00A
:103BB00011B0F0BD0DAB0193162304AA9B1815227A
:103BC00004A90BAE521800962169A06900F0A9FC67
:103BD0000028EDD1E3699C46002B08D06B460DAA66
:103BE00023CA23C320000CCE216A6646B047242294
:103BF00004AB9B181A78002A1AD00423012A03D098
:103C00000133022A00D00023162204A95218128878
:103C1000E16801920022606900920AAA00F040FC6B
:103C20000028C5D10A992000FFF751FF0028BFD115
:103C3000079B002B2FD03B78079A934232D100206C
:103C4000B6E70BAD00950AAB05222169A06900F02B
:103C5000F0FB0028ACD12B880090019306230DAA1D
:103C6000E168606900F01CFC0028A1D10D99DAE739
:103C70000BAD00950AAB06222169A06900F0D9FBC3
:103C8000002800D094E72B88009001930723E6E7F3
:103C900000232372CCE7069B002BCCD1CFE7079BF8
:103CA000002BF8D0606BE36B98470028C7DD069BBC
:103CB000002B00D138E7059A934200D934E7BEE7DC
:103CC00010B50124048000248361029B44600472C7
:103CD0004161C2600361C461046244628462C4627F
:103CE000046344638463C46310BD41628262C3623F
:103CF000704710B504006263029A08002163A36351
:103D0000E26300219847A36B0021606B984710BDC8
:103D10000162C261704737B504000D00A36B11004A
:103D2000406B98476B46D91D00232A0020000B707A
:103D3000FFF7F2FE3EBD84B070B505008AB00F916A
:103D400011931899406BAB6B1092179E9847FA210C
:103D50000FAC238989005943286B6960AB6B984786
:103D600000236A462B7206333370169B0434069385
:103D70000BCC0BC20BCC0BC209AA0F9BE96868697C
:103D800000F0F8F9002823D109992800FFF79FFED9
:103D900000281DD122246C4420700200022321003F
:103DA0002800FFF7B9FE002812D12378022B0DD18D
:103DB000232233006A442969A86900F0BFFA002869
:103DC00006D13378002B03D00A2000E009204042BE
:103DD0000AB070BC08BC04B01847000082B0F0B54F
:103DE00004008BB006911193DDB21499A36B406B64
:103DF00022270792984700236F443B806B1E012BBC
:103E000006D82388244A934240D1012323803B8053
:103E100000239C46099303AA11A949C949C201AAD2
:103E200006A80AC80AC23A8863460092E16809AA4D
:103E3000606900F0E1FB002823D109992000FFF719
:103E400046FE00281DD1002D1BD00426012D03D0D5
:103E50000600022D00D1073608AD2870330000227D
:103E600029002000FFF758FE00280AD12B78B34222
:103E70000FD1212300976B4432002169A06900F023
:103E8000D8FA0BB0F0BC08BC02B0184701339BB2A3
:103E9000BCE709204042F4E7FFFF000013B504002F
:103EA000406BA36B98476368002B01D1002016BDBF
:103EB000206BE36B98470028F8DC237A002B10D1A5
:103EC0000C3301AAE168606900F091FA0028EED194
:103ED00001992000FFF7FBFD0028E8D101232372A0
:103EE000E5E70D204042E2E7FF23934010B50400D0
:103EF000D843884020400841C0B210BD10B51C0016
:103F0000FF23A340DB439340914004789C4321432B
:103F1000017010BD10B5002B02D11360002010BD40
:103F20000468091B8B4204D814600268D31803602C
:103F3000F4E701204042F2E7F8B50026050017003B
:103F40001C00B3420AD00068091A8B4208D81A0034
:103F5000390005F02DFB2B681C192C603000F8BDD2
:103F600001267642FAE7036810B5C91A012904D878
:103F7000002301201380404210BD1C785978240290
:103F800009190233118003600020F5E70368C91A9C
:103F9000012908D9110A197003685A70036802339D
:103FA00003600020704701204042FBE7F7B56B46F5
:103FB0009C1D1500220006000F00FFF7D4FF00280B
:103FC00009D123882A1D39003000FFF7A3FF0028FC
:103FD00001D123882B80FEBD73B594B22200050069
:103FE0000E000193FFF7D2FF002805D12300019AAC
:103FF00031002800FFF7A0FF76BD03688B4204D193
:10400000002301201370404270471B78137003682F
:10401000013303600020F7E703688B4205D01A7074
:104020000368013303600020704701204042FBE732
:1040300003007F2803D8012300200B6070470A4A41
:10404000904201D80223F7E7084A0020934202D8A1
:1040500003230B60F2E7064A934201D80423F8E7F2
:10406000086002204042E9E7FF3F0000FEFF1F001A
:10407000FEFFFF0FF7B57F2400230126A446076843
:104080001360C91B009100995D1CA94213D3052D33
:1040900014D07C190194FC5C63462340734311687F
:1040A00064B2CB181360F6012B00002CEBDB019BF4
:1040B00003600020FEBD01204042FBE70220FBE739
:1040C00080235B42F0B59C4600240668651C8B1B70
:1040D000AB4216D313007F27D2093B40002A02D0FF
:1040E00067463B43DBB23355002A04D103685D19B0
:1040F00005601000F0BD2C00042DE6D102204042E6
:10410000F8E70120FBE70000002373B513706B464E
:10411000DD1C01904118140001A82A00FFF76DFF73
:10412000061E10D1042228781100FFF7DDFE207052
:104130000D2804D801238340044A134203D10023ED
:10414000092623707642300076BDC046FC2A000066
:1041500013B54118019001A81400FFF78BFF831CD1
:1041600003D100230538236016BD0028FCD00023AE
:104170002360F9E782B0F0B58BB01193039211AAD6
:104180001E1C9389189F0093938A029001930690B6
:104190004518B3B2002F00D0ABE00C331E00009BDB
:1041A000002B06D00233F618019B002B01D00233FE
:1041B000F61807A93000FFF73BFF831C00D1B8E0D9
:1041C00004AB9C1D0023237004331A00200001213E
:1041D000FFF794FE2278290006A8FFF71DFF041EB2
:1041E00000D080E03200290006A8FFF769FF041E16
:1041F00079D1514908A800F06CFA089A099B290066
:1042000006A8FFF7E9FE041E6DD10422290006A8C6
:10421000FFF702FF041E66D104ABDC1DD87111ABA1
:10422000997A012320001A00FFF768FE002F11D0B1
:104230000123022219002000FFF760FE397A0223D1
:1042400003222000FFF75AFE797A0123052220007D
:10425000FFF754FE009B002B10D00123072204A877
:1042600019008018FFF74AFE019B002B06D001239E
:1042700004A8062219000730FFF740FE04ABDA79E4
:10428000290006A8FFF7C8FE041E2CD111AE328902
:10429000290006A8FFF77AFE041E24D1119A73683C
:1042A000290006A8FFF798FE041E1CD1002F27D175
:1042B000009B002B12D0149A159B290006A8FFF72B
:1042C0008BFE002833D1019B002B07D0169A179B39
:1042D000290006A8FFF780FE002828D1029A069B35
:1042E0009B1A039A136020000BB0F0BC08BC02B00C
:1042F00018473E88BA890236B2180E33D6184EE7F0
:104300003A687B68290006A8FFF766FE00280ED1F0
:10431000BA89290006A8FFF739FE002807D1BB8912
:104320003A69290006A8FFF707FE0028C0D004005C
:10433000D9E707246442D6E798BD0000F0B587B0FE
:104340001D0002AB46185F1D019204903A00310037
:1043500004A8FFF752FE041E37D10422387811005A
:10436000FFF7C2FD02283DD105AA310004A8FFF7DE
:1043700081FE041E29D1059B022B36D102AB9F1D65
:104380003A00310004A8FFF738FE041E1DD102AB2D
:10439000DA1D310004A8FFF730FE041E15D138786D
:1043A00001220721FFF7A0FD013843425841019B3C
:1043B000187002ABD8790623052805D803F0A4F8B5
:1043C00003080A0C0E1000232B70200007B0F0BD6C
:1043D0000123F9E70223F7E70323F5E70423F3E7D3
:1043E0000523F1E709246442EFE70824FBE7F7B56A
:1043F000060018006B46DF1C00233B700433741862
:10440000150001001A0038000196FFF777FD3A7891
:10441000210001A8FFF700FE002809D102002100B9
:1044200001A8FFF74DFE002802D1019B9E1B2E60C4
:10443000FEBDF0B585B01E006B46DD1D002344189F
:10444000170002902A00210002A82B70FFF7D5FD6B
:1044500000281ED1042228781100FFF745FDB8423C
:1044600019D1012203212878FFF73EFD013843428C
:10447000584103AA3070210002A8FFF7FBFD002875
:1044800007D1039B022B09D10A9A210002A8FFF74A
:104490006AFD05B0F0BD09204042FAE70820FBE7BD
:1044A000F0B587B001930CAB1B78441802930DABA9
:1044B0001B880590039304ABDD1C00232B70043391
:1044C00001990600170028001A00FFF717FD0123C5
:1044D000032202992800FFF711FD019901220639F4
:1044E0004B4259412800C9B20223FFF707FD2A7841
:1044F000210005A8FFF790FD002810D1022221001D
:1045000005A8FFF7DDFD002809D1039A210005A8C1
:10451000FFF73CFD002802D1059B9E1B3E6007B0C3
:10452000F0BDF0B587B0009302AB4618DF1D0192D5
:1045300004903A00310004A80D9DFFF75EFD041EB3
:1045400043D1042238781100FFF7CEFC0100032884
:104550004BD101223878FFF7C7FC0138434258415C
:10456000019B0122187021003878FFF7BDFC01384B
:10457000434258410222687001213878FFF7B4FCA9
:10458000012825D0022823D02C7005AA310004A8C8
:10459000FFF770FD041E18D1059B012B28D9049A42
:1045A000B61AB34226D8D61831000C9A04A8FFF7E1
:1045B000FDFC041E09D12B78009A002B0AD0310093
:1045C00004A8FFF7D0FC041E05D0200007B0F0BD02
:1045D0002870DAE71380049B2A1DF31AAB603100C0
:1045E00004A8FFF797FC0400EFE709246442ECE716
:1045F0000824FBE70124F9E7F0B58BB0049310AB76
:104600001B880392059313AB1F78159B060002933A
:1046100011AB029A1B8808909B181A1D441801922E
:10462000002F01D10233019309A90198FFF700FD82
:10463000831C4BD006ABDD1D00232B70042303210C
:104640001A002800FFF75AFC0123032204992800CE
:10465000FFF754FC0223012239002800FFF74EFC2B
:1046600013AB5978002228000123FFF747FC2A7872
:10467000210008A8FFF7D0FC002818D1019A2100DA
:1046800008A8FFF71DFD002811D1119A129B2100E7
:1046900008A8FFF7A1FC002809D1002F09D1029B2F
:1046A000149A210008A8FFF747FC002809D00BB096
:1046B000F0BD059A210008A8FFF768FC0028EED09D
:1046C000F5E7089B039A9B1B1360F0E70720404225
:1046D000EDE770B504000D1E04D100232380636054
:1046E000200070BD080005F006FD80B20028F4D05F
:1046F00020806560F4E7000070B50121202000F003
:104700006DFB0021202000F0B5FB0A2000F06EF9BF
:104710000021202000F062FB642000F067F92020D7
:1047200000F0F0FA962305009B00414C984222D9F4
:104730004049200000F0D4FE200000F0BDFD032120
:104740000B2000F0C3FB03210C2000F0BFFB002274
:104750006B21200000F0E6FD0121200000F024FE86
:104760001B21200000F020FE2000032100F0C4FDEA
:10477000200000F0B6FD2F49200000F0B1FE20001F
:1047800000F09AFD03210B2000F0A0FB03210C2078
:1047900000F09CFB00226B21200000F0C3FD0721EC
:1047A000200000F001FE96232B219B009D4200D9A2
:1047B0002039200000F0F8FD0321200000F09CFDCE
:1047C000200000F08EFD1B49200000F089FE200033
:1047D00000F072FD03210B2000F078FB03210C2078
:1047E00000F074FB00226B21200000F09BFD0021F3
:1047F000200000F0D9FD0721200000F0D5FD0321A5
:10480000200000F079FD200000F06BFD01211F2049
:1048100000F0E4FA01211F2000F02CFB01212320ED
:1048200000F0DCFA0021232000F024FB70BDC0461C
:1048300014090020A086010010B5024802F049FAD0
:1048400010BDC0469404002010B5024802F041FAA1
:1048500010BDC046D00600207FB51949194800F0A8
:1048600095FC1949194800F091FC1949194800F0C4
:104870008DFC1949194800F089FC194C1949200090
:1048800000F084FC184E1949300000F07FFC01252F
:1048900003233100019500930D220B33144802F0DD
:1048A000ADF91D230393013B02931A3B019300953D
:1048B00018331B2221000F4802F05CF97FBDC0466F
:1048C000000800420C090020000C004210090020E2
:1048D00000100042140900200014004218090020B2
:1048E0001C0900200018004220090020001C004282
:1048F00094040020D0060020FEE70000034B10B512
:104900001B68002B00D0984710BDC046240900202A
:1049100070B50F490F4CA14204D100F08FF802F09E
:1049200043FDFEE70C4D00238D42F6D0CA18E8186F
:10493000A24205D3094B8242EFD00949002204E08C
:10494000006804331060F1E704C38B42FCD3E4E752
:1049500000000020700200203CC500007002002012
:10496000640F002010B500F066F8002801D100F0B7
:1049700057F810BD014B18607047C046240900204D
:10498000014B18687047C04628090020F7B5134846
:10499000012284461249134C8E68636805689B0E99
:1049A0001340019288686268019F920E3A40674600
:1049B0003F6893420ED1BD420CD186420AD35B19A7
:1049C000FA254868AD00861B07486B437043000D0D
:1049D000C018FEBD3D0013000600E3E728090020D3
:1049E00010E000E000ED00E05555000070B5041E39
:1049F00010D0FFF7CBFF050000F01CF8FFF7C6FF53
:104A0000054B401B9842F7D9FA23013C9B00ED1857
:104A1000002CF3D170BDC046E703000070470000D2
:104A200010B5034A13680133136000F073FB10BD27
:104A30002809002070470020704700001E2270B532
:104A400046484749436893431C3A1343436008234D
:104A50008C6923438B61434C434B9C829C8A144357
:104A60009C82DC681442FCD00124404A1470157802
:104A7000254203D055786DB2002DF8DB01249460F7
:104A8000547864B2002CFBDB394C5460547864B227
:104A9000002CFBDB8224E4015480547864B2002CA7
:104AA000FBDB02249C840E34DD682542FCD0314CB3
:104AB000DC621024DD682542FCD09D8C2E4C2C43FA
:104AC0009C841024DD682542FCD002249D8C802625
:104AD0002C439C844024DD683542FCD0DD682542AF
:104AE000F9D01024DD682542FCD00024946054786D
:104AF00064B2002CFBDB214C5460547864B2002C6F
:104B0000FBDB1C6A1E4D2C4080251C621C6AAC43DA
:104B10001C62032393601B4B536053785BB2002BE2
:104B2000FBDB0023FF240B72174A4B728B72CB7294
:104B3000164B1A60164B174A1B6811689A065B01E0
:104B4000C90E2340520F12020B431343124A13851E
:104B5000802342681343436070BDC046004000415B
:104B6000000400400C06000000080040000C00405B
:104B700001050100B905FF7D040A000000070300DC
:104B8000FFFCFFFF03060100006CDC023C0000207C
:104B9000246080002060800000400042FA21314BF8
:104BA00010B51868890002F0B9FC2F4B0138984203
:104BB00056D82E492E4A4860C020136A00061B02B0
:104BC0001B0A03431362002407238C600B608021BF
:104BD000136A09061B021B0A0B431362FC22254BB6
:104BE000196A0A431A62FC22196A92010A431A627C
:104BF000A022196AD2020A431A622000002101345D
:104C000000F0ECF80F2CF8D11B4B1C005A7852B274
:104C1000002AFBDB194A5A80194B1A00597EC90930
:104C20000129FBD0E421C90099803F21D970537E2E
:104C3000DB09012BFBD0C02300205B0113619070C6
:104C400000F02EF863785BB2002BFBDB0D4B0E4AB5
:104C50006380D379DB09012BFBD04123537010BD56
:104C6000FEE7C0463C000020FFFFFF0010E000E030
:104C700000ED00E000040040000C00401E40000079
:104C8000004000422140000000480042914202D012
:104C900002D98A1AD0407047521A9040FBE70000B0
:104CA000164A00B51300517EC9090129FBD001380D
:104CB000042816D81969124A0A400F211A615A7835
:104CC0008A4302F021FC0308060B030011000122B5
:104CD0000A435A7000BD11000322F9E711000222B5
:104CE000F6E7F02311691B050B430F21136153787D
:104CF0008B43190002230B435370EBE70040004243
:104D0000FFFFFFF010B504000E2800D80F3401217A
:104D1000200000F0DBF81823102163432A4CE4182C
:104D20006156002901D014290DD1284B1800DA79D9
:104D3000D209012AFBD002241A78A2431A70C3793F
:104D4000DB09012BFBD022480300427ED209012A55
:104D5000FBD01F2402692140A2430A4302615A7E0C
:104D6000D209012AFBD0022219780A431A705A7E0E
:104D7000D209012AFBD00222197B0A431A731A7E38
:104D8000D207FCD501221A765A7ED209012AFBD01D
:104D90000222197B0A431A731A7ED207FCD5588B5C
:104DA00080B25A7ED209012AFBD002211A788A43A6
:104DB0001A705A7ED209012AFBD0064B1A68064B9C
:104DC0001968FFF763FF10BDA0BD00000048004256
:104DD000004000424400002040000020182330B56D
:104DE0001D00040045430820204A5519285601306B
:104DF00014D0032912D808006343D156D31802F007
:104E000083FB02280E1B5868CB010221184A9B180D
:104E10001A1840321170012282405A6030BD586821
:104E2000CB010621124A9B181A1840321170012238
:104E300082405A609A61F1E75868CB0106210C4A1A
:104E40009B181A1840321170012282405A605A6130
:104E5000E4E75868CB010221054A9B181A18403232
:104E60001170012282409A60D8E7C046A0BD0000C0
:104E7000004400411823F0B508245843114A131880
:104E80001C5701341BD0012635005F688356BD4096
:104E90000D4ADB019A18906805420BD10C00601E88
:104EA0008441D2194032107834400336A400B04314
:104EB00020431070044A9B18002901D15D61F0BDA8
:104EC0009D61FCE7A0BD0000004400411822424360
:104ED000F8B52C4E0300B218127A52B21400013207
:104EE0000ED0481C00240C280AD802F00DFB071F26
:104EF0001F1F1F1F1F1F1F0B0B0B0B0001246442E2
:104F00002000F8BD092905D100211800FFF766FF30
:104F10000024F5E70A2901D10839F6E700240B2916
:104F2000EED10A391800FFF759FFE9E71822534379
:104F3000F218556801202C00F356134ADB016E0865
:104F40009B18C9B204409E19002C0DD00F24303696
:104F50003278090122401143C9B25B1931704033E4
:104F60001A7810431870D3E732000F2730321678C2
:104F70005B19BE433143117040331A7810431870E7
:104F8000BEE7C046A0BD000000440041F7B5C31D08
:104F90000193002306000D00041D009321780A22CE
:104FA000280000F0A1F82E210700280000F055F895
:104FB000009B3F18DB190093019B01349C42EDD10B
:104FC000F17928000A2200F08FF8009B1818FEBD26
:104FD00030B503AC2578044CC57108340460017108
:104FE0004271837130BDC04600C10000024B416078
:104FF000083303607047C04600C10000416070473D
:10500000F7B506000D000C008B180193019B671B80
:105010009C4207D0336821781B68300098470134E0
:105020000028F3D13800FEBD70B5040008000D0063
:1050300005F061F82368020029005B6820009847AA
:1050400070BD10B50B1E02D0FFF7EEFF0300180075
:1050500010BD10B5FFF7F5FF10BD10B503681B6854
:10506000984710BD10B50249FFF7DEFF10BDC046DE
:1050700019BD000070B50400FFF7E3FF0500200034
:10508000FFF7F0FF401970BDF0B58BB06B4615000F
:10509000002205330600DA770800012D00D80A2522
:1050A00009AC290002F0C0FACAB213003733070076
:1050B000DBB2092902D813003033DBB2013C237084
:1050C000002FEED121003000FFF7BBFF0BB0F0BD89
:1050D00010B5002A04D10368C9B21B68984710BDF7
:1050E000D2B2FFF7D1FFFAE710B5FFF7F1FF10BD1D
:1050F00010B50400FFF792FC014B1C6010BDC046C8
:10510000480000200122024B52421A607047C046FC
:1051100048000020164A10B51368591C26D0013BE0
:105120001360002B22D172B6124B134A0433934200
:1051300013D9124A01211000147D0C42FCD0202109
:10514000148BFF319B085B0021431183D3610C4B0F
:1051500013800123027D1A42FCD0BFF34F8F094B0D
:10516000094ADA60BFF34F8FC046FDE710BDC04665
:105170004800002000200000030200000040004121
:1051800002A5FFFF00ED00E00400FA050160704792
:105190009446F0B59E1E721E9641624605689207BF
:1051A0002F6836063A4332432A60072505AC247837
:1051B0000068A4012940214342680024022B00D04A
:1051C0005C03114321434160F0BD30B5C025036845
:1051D000AD031C6812052A402243C0240904A4021E
:1051E00021401143196003685A6814435C6030BD64
:1051F0000123026811680B43136003681A68D20721
:10520000FCD4DA69D207F9D4704702230268116826
:105210000B4313600268D3699B07FCD47047036893
:105220001A7ED20702D41A7E9207FCD5704700225C
:1052300003685A8370470368187E4007C00F7047A1
:105240000368187EC0097047802302685B42117EA4
:105250000B43137670470368588B8007C00F704765
:1052600002230268518B0B43538370470368187EF7
:10527000C007C00F70470368188DC0B2704703683D
:105280001A7ED207FCD589B2012019857047012208
:1052900003689A757047012203681A7570470123E5
:1052A000026811680B43136003681A68D207FCD4C4
:1052B000DA69D207F9D470470223026811680B43F8
:1052C00013600368DA699207FCD430215A8B8A4351
:1052D000110010220A435A830268D3695B07FCD489
:1052E00070470221026813688B4313600268D36918
:1052F0009B07FCD470470000032230B503681140BF
:105300001C68074D5A6809042A40E4061143640FDB
:105310005960052C03D10268D3695B07FCD430BD0A
:10532000FFFFFCFF70B5056804006B8B9B069B0FAD
:10533000022B0DD06B8B00209B069B0F032B32D0D2
:105340006B8B9B0704D56B8B9B069B0F012B2AD184
:105350006B6A49001143DB0AC9B2DB020B436B6283
:105360002368002A13D11A7ED207FCD55B8B9B06DB
:105370009B0F022B04D0490800222000FFF7D2FF28
:105380002368588B4007C30F012058400BE0187E5C
:105390008007C00FF4D11A7ED207F8D5C022596811
:1053A00092020A435A6070BD03682833197003687B
:1053B000187EC007C00F03D15A8BD207F8D57047AB
:1053C000588B4007C30F01205840F8E70368214A73
:1053D00030B593422FD0204A93422FD01F4A934298
:1053E0002FD01F4A93422FD01E4A93422FD01E4ADD
:1053F00093421FD10E2319220121032599401B48F6
:10540000C024016099082B40AB40FC359D408900C9
:105410000918A4000859A843C0259D402B00034348
:105420000B518023DB011A43114B5A805A7852B238
:10543000002AFBDB30BD09231422DDE70A231522F5
:10544000DAE70B231622D7E70C231722D4E70D2324
:105450001822D1E700080042000C00420010004270
:105460000014004200180042001C004200E100E06D
:10547000000C0040F8B504000F0016001D00FFF7F7
:10548000A5FF2000FFF7B4FE1C21BB000B407107F5
:105490002268090C0B431360842322689375012F43
:1054A0001AD11021012E00D008390C4B694318681D
:1054B000C00002F033F80722216802408B895203B2
:1054C000DB04DB0C13438B81226803049089DB0C23
:1054D000400B400318439081F8BDC0463C000020BB
:1054E000F8B504000F00FFF771FF2000FFF7D7FEAB
:1054F0001422236879001A600C4B25681E6830005E
:1055000002F00CF80A490400300002F007F87D238D
:10551000FA215843C90002F001F8FF23241AE86871
:10552000053C1C4098430443EC60F8BD3C0000205F
:1055300040420F000020704770B50F26CB1D013987
:1055400002003240D5B22C0000093034092A00DDB7
:1055500007341C70013B8B42F2D170BD10B50C00BA
:105560000B4B1868FFF7E8FF21000A4B0831186859
:10557000FFF7E2FF2100084B10311868FFF7DCFF4E
:105580002100064B18311868FFF7D6FF202010BD08
:105590000CA0800040A0800044A0800048A08000B3
:1055A00008B4024B9C46103808BC60475D550000AB
:1055B00070473F20704713B56B460268D9710733B7
:1055C000546819000122A04716BD000070B50A26D4
:1055D0000B7892B06E44023305000B703C22002120
:1055E000300004F001F8394801AC06903848242115
:1055F0000790062020776846364AA1742281364AF1
:10560000364BA281FD3AFF3A8018C17768462339AC
:105610000630C17768460730C17702A8C1770720F6
:10562000F277032608316944C87703A9CE771021A1
:105630002B366E443170092621851F3169440E7066
:105640000CA9053E0E7033212380022369440B70A0
:1056500006360DA90E7022493536A1863B216E44CF
:10566000307010A86274E27702703D3269446A4477
:105670000B70137040210022E37023716371A373D8
:1056800041336B44218719705A702B7DC039A37048
:10569000A37263770133DBB2A3776A7D0B200D0021
:1056A00068441543C5773120684403703A23501C81
:1056B0006B441870412302320A436B441A70210074
:1056C0004222084800F05CFF12B070BD10010424B3
:1056D000020605240904000001020000080B000076
:1056E000070500009409002008B4024B9C461038BE
:1056F00008BC6047CD55000070B5027D0B790C00E9
:1057000000259A420BD10B784E78A12B09D1212E7E
:1057100005D107221F49204800F032FF013528003B
:1057200070BD212BFBD1202E2BD1072219491A48FD
:1057300000F068FE174B1A785978090211439A78DD
:1057400012041143DA7812060A439621C9008A42EC
:105750001DD1DB79DB071AD4FA20FFF7C9FC002141
:105760000D4801F019F80125232ED8D1E378A2784D
:105770001B021343094A00210748136001F00CF88B
:10578000CDE7222EEFD18A78024BDA71D2E7FFF70C
:10579000B9FCE4E750000020940900204C000020F0
:1057A00008B4024B9C46103808BC6047F95600000C
:1057B00010B5417D006A013100F05CFD034B1B68B0
:1057C00001335A1E9341181810BDC04658000020DE
:1057D00010B5417D006A023100F062FD10BD10B5C8
:1057E000417D006A023100F029FD10BD70B50D0049
:1057F000417D0400130002312A00006A00F016FE09
:10580000002801D10123636070BD000010B5054C74
:1058100023685A1C04D103685B6998470300206021
:10582000180010BD58000020074A0300106810B58A
:10583000411C03D001235B42136010BD597D186ADF
:10584000013100F0A3FDF8E7580000207047002068
:1058500070470000FA239B0010B583600F4B0022B5
:10586000C3820300283383610D4B04004260C26190
:105870001800443323610830631D21622060DA7709
:105880008323A362813BE3628033236300F0AEF89D
:105890002100103100F07EF8200010BD030200004E
:1058A0000CC10000022110B5094B1A68437D5B0151
:1058B000D318FF339C7A21439972437D0133DBB2C5
:1058C0005B01D3180122FF33997A0A439A7210BD03
:1058D0004C0E00207047000010B502490248FFF747
:1058E000B9FF10BD940900202C09002070B50E00EE
:1058F00000254468002C0BD0236831005B68200031
:105900009847002802DB2D18E468F3E701256D4273
:10591000280070BD70B50D004468002C08D02368C5
:1059200029009B6820009847002802D1E468F4E72A
:10593000200070BD70B50D0000264468002C09D011
:105940002368290020001B69984736182D18F6B2E5
:10595000E468F3E730002C7070BD70B50D0044684A
:10596000002C08D0236829001B68200098470028D5
:1059700002D1E468F4E7200070BD70B50D00446802
:10598000002C06D023682000DB6829009847E468D3
:10599000F6E770BDF0B58C79457803002A19002030
:1059A000072A1FDC5A68824216D159601A78C879D2
:1059B0000A7112184D711A7000220B4DD0B2844238
:1059C0000FD98F6858789600F759860001307751C3
:1059D00001325870F2E70200D0680028FBD1D16094
:1059E000E4E70120F0BDC0466C0900200121064A11
:1059F00010B5136805480B4004D18024640004806E
:105A00004360116010BDC046600900206409002099
:105A1000704710B5040001F0EBFC200010BD000041
:105A2000F0B5822919D1C3B2294D5A01AA1891693A
:105A3000284C80010C40C0218905214391612649F1
:105A4000083340187021506128685B011A5C8A4352
:105A5000110030220A431A54F0BD0029FCD1C0269F
:105A6000C1B21B4C4B01E3189A681A4DB6052A4087
:105A700032439A60194A800182185A600A00072747
:105A8000246808325201115DB9430F0001213943E6
:105A900011559F6910493D4040182E439E61586141
:105AA0007020115D81430800102101431155996850
:105AB0000B48A21808408021490301439960996866
:105AC000890B89039960402311790B431371C3E754
:105AD0004C0E0020FFFFFF8FC0090020800B00202C
:105AE000FF3F00F0EFF3108303600123436072B6C1
:105AF00070470368002B02D162B6BFF36F8F704707
:105B0000F7B50600FC36B3690400002B18D1B227A4
:105B10007F00C55D6846FFF7E5FF019BEDB2013BE5
:105B200002D3E55DEDB2FAE768460193FFF7E1FFC6
:105B3000002D01D10020FEBD706E336EC01AFAE751
:105B40006846FFF7CFFFD8220025019B5200013B9A
:105B500002D3A55CEDB2FAE768460193FFF7C9FFEF
:105B6000002DE7D0D6235B00E058043BE358E5E77F
:105B700010B54468FC3043690B48DBB25A01A218E7
:105B8000916808330840802149030143916091687E
:105B90005B01890B890391602268D318402219792F
:105BA0000A431A7110BDC046FF3F00F0F7B505006B
